{"abi":[{"type":"constructor","inputs":[{"name":"_sponsor","type":"address","internalType":"address payable"},{"name":"_threshold","type":"uint256","internalType":"uint256"},{"name":"_name","type":"string","internalType":"string"},{"name":"_token","type":"address","internalType":"contract IERC20"}],"stateMutability":"nonpayable"},{"type":"function","name":"authorizeContributor","inputs":[{"name":"contributor","type":"address","internalType":"address"}],"outputs":[],"stateMutability":"nonpayable"},{"type":"function","name":"contribute","inputs":[{"name":"_amount","type":"uint256","internalType":"uint256"}],"outputs":[],"stateMutability":"nonpayable"},{"type":"function","name":"contributions","inputs":[{"name":"","type":"address","internalType":"address"}],"outputs":[{"name":"","type":"uint256","internalType":"uint256"}],"stateMutability":"view"},{"type":"function","name":"name","inputs":[],"outputs":[{"name":"","type":"string","internalType":"string"}],"stateMutability":"view"},{"type":"function","name":"refund","inputs":[{"name":"amount","type":"uint256","internalType":"uint256"}],"outputs":[],"stateMutability":"nonpayable"},{"type":"function","name":"sponsor","inputs":[],"outputs":[{"name":"","type":"address","internalType":"address"}],"stateMutability":"view"},{"type":"function","name":"threshold","inputs":[],"outputs":[{"name":"","type":"uint256","internalType":"uint256"}],"stateMutability":"view"},{"type":"function","name":"token","inputs":[],"outputs":[{"name":"","type":"address","internalType":"contract IERC20"}],"stateMutability":"view"},{"type":"function","name":"totalContributions","inputs":[],"outputs":[{"name":"","type":"uint256","internalType":"uint256"}],"stateMutability":"view"},{"type":"function","name":"withdraw","inputs":[{"name":"amount","type":"uint256","internalType":"uint256"}],"outputs":[],"stateMutability":"nonpayable"},{"type":"event","name":"ContributionReceived","inputs":[{"name":"contributor","type":"address","indexed":false,"internalType":"address"},{"name":"amount","type":"uint256","indexed":false,"internalType":"uint256"}],"anonymous":false},{"type":"event","name":"ContributorAuthorized","inputs":[{"name":"contributor","type":"address","indexed":false,"internalType":"address"}],"anonymous":false},{"type":"event","name":"FundsWithdrawn","inputs":[{"name":"sponsor","type":"address","indexed":false,"internalType":"address"},{"name":"amount","type":"uint256","indexed":false,"internalType":"uint256"}],"anonymous":false},{"type":"event","name":"RefundIssued","inputs":[{"name":"contributor","type":"address","indexed":false,"internalType":"address"},{"name":"amount","type":"uint256","indexed":false,"internalType":"uint256"}],"anonymous":false}],"bytecode":{"object":"0x60806040523480156200001157600080fd5b5060405162000dc838038062000dc88339810160408190526200003491620000df565b600180546001600160a01b0319166001600160a01b0386161790556000839055600262000062838262000277565b50600380546001600160a01b0319166001600160a01b039290921691909117905550506000600555506006805460ff1916600117905562000343565b6001600160a01b0381168114620000b457600080fd5b50565b634e487b7160e01b600052604160045260246000fd5b8051620000da816200009e565b919050565b60008060008060808587031215620000f657600080fd5b845162000103816200009e565b60208681015160408801519296509450906001600160401b03808211156200012a57600080fd5b818801915088601f8301126200013f57600080fd5b815181811115620001545762000154620000b7565b604051601f8201601f19908116603f011681019083821181831017156200017f576200017f620000b7565b816040528281528b868487010111156200019857600080fd5b600093505b82841015620001bc57848401860151818501870152928501926200019d565b6000868483010152809750505050505050620001db60608601620000cd565b905092959194509250565b600181811c90821680620001fb57607f821691505b6020821081036200021c57634e487b7160e01b600052602260045260246000fd5b50919050565b601f82111562000272576000816000526020600020601f850160051c810160208610156200024d5750805b601f850160051c820191505b818110156200026e5782815560010162000259565b5050505b505050565b81516001600160401b03811115620002935762000293620000b7565b620002ab81620002a48454620001e6565b8462000222565b602080601f831160018114620002e35760008415620002ca5750858301515b600019600386901b1c1916600185901b1785556200026e565b600085815260208120601f198616915b828110156200031457888601518255948401946001909101908401620002f3565b5085821015620003335787850151600019600388901b60f8161c191681555b5050505050600190811b01905550565b610a7580620003536000396000f3fe608060405234801561001057600080fd5b506004361061009e5760003560e01c806342e94c901161006657806342e94c901461010957806377c9366214610129578063b9da4a4214610154578063c1cbbca714610167578063fc0c546a1461017a57600080fd5b806306fdde03146100a3578063278ecde1146100c15780632e1a7d4d146100d657806337c08923146100e957806342cde4e814610100575b600080fd5b6100ab61018d565b6040516100b891906108f6565b60405180910390f35b6100d46100cf366004610945565b61021b565b005b6100d46100e4366004610945565b6103ed565b6100f260055481565b6040519081526020016100b8565b6100f260005481565b6100f261011736600461095e565b60046020526000908152604090205481565b60015461013c906001600160a01b031681565b6040516001600160a01b0390911681526020016100b8565b6100d461016236600461095e565b61066f565b6100d4610175366004610945565b61072b565b60035461013c906001600160a01b031681565b6002805461019a9061098e565b80601f01602080910402602001604051908101604052809291908181526020018280546101c69061098e565b80156102135780601f106101e857610100808354040283529160200191610213565b820191906000526020600020905b8154815290600101906020018083116101f657829003601f168201915b505050505081565b600054600554106102ab5760405162461bcd60e51b815260206004820152604960248201527f5468652063616d706169676e206861732072656163686564206974732074687260448201527f6573686f6c642c20736f20726566756e647320617265206e6f206c6f6e67657260648201526820706f737369626c6560b81b608482015260a4015b60405180910390fd5b336000908152600460205260409020548082111561031b5760405162461bcd60e51b815260206004820152602760248201527f526566756e6420616d6f756e74206973206d6f7265207468616e20636f6e747260448201526634b13aba34b7b760c91b60648201526084016102a2565b61032582826109de565b3360008181526004602081905260409182902093909355600354905163a9059cbb60e01b815292830191909152602482018490526001600160a01b03169063a9059cbb906044016020604051808303816000875af115801561038b573d6000803e3d6000fd5b505050506040513d601f19601f820116820180604052508101906103af91906109f1565b5060408051338152602081018490527fa171b6942063c6f2800ce40a780edce37baa2b618571b11eedd1e69e626e7d76910160405180910390a15050565b6001546001600160a01b031633146104535760405162461bcd60e51b815260206004820152602360248201527f4f6e6c79207468652073706f6e736f722063616e2077697468647261772066756044820152626e647360e81b60648201526084016102a2565b60005460055410156104e45760405162461bcd60e51b815260206004820152604e60248201527f417320746865206f7267616e697a65722c20796f752063616e206f6e6c79207760448201527f69746864726177206f6e63652074686520636f6e747269627574696f6e20746860648201526d1c995cda1bdb19081a5cc81b595d60921b608482015260a4016102a2565b6003546040516370a0823160e01b81523060048201526001600160a01b03909116906370a0823190602401602060405180830381865afa15801561052c573d6000803e3d6000fd5b505050506040513d601f19601f820116820180604052508101906105509190610a13565b8111156105ab5760405162461bcd60e51b815260206004820152602360248201527f4d6f72652066756e647320726571756573746564207468616e20617661696c61604482015262626c6560e81b60648201526084016102a2565b60035460015460405163a9059cbb60e01b81526001600160a01b0391821660048201526024810184905291169063a9059cbb906044016020604051808303816000875af1158015610600573d6000803e3d6000fd5b505050506040513d601f19601f8201168201806040525081019061062491906109f1565b50600154604080516001600160a01b039092168252602082018390527feaff4b37086828766ad3268786972c0cd24259d4c87a80f9d3963a3c3d999b0d91015b60405180910390a150565b6001546001600160a01b031633146106e65760405162461bcd60e51b815260206004820152603460248201527f4f6e6c79207468652063616d706169676e2073706f6e736f722063616e20617560448201527374686f72697a6520636f6e7472696275746f727360601b60648201526084016102a2565b6106f1600782610889565b506040516001600160a01b03821681527f21732f0772556fe8cfb64e110a834a1a473319ec878a2cbe6c90e165e1b95cb790602001610664565b60065460ff1661079a5760405162461bcd60e51b815260206004820152603460248201527f5468652063616d706169676e2069736e277420616363657074696e6720636f6e604482015273747269627574696f6e73207269676874206e6f7760601b60648201526084016102a2565b6003546040516323b872dd60e01b8152336004820152306024820152604481018390526001600160a01b03909116906323b872dd906064016020604051808303816000875af11580156107f1573d6000803e3d6000fd5b505050506040513d601f19601f8201168201806040525081019061081591906109f1565b503360009081526004602052604081208054839290610835908490610a2c565b92505081905550806005600082825461084e9190610a2c565b909155505060408051338152602081018390527f1bb460ccaaf70fbacfec17a376f8acbd278c1405590ffcc8ebe4b88daf4f64ad9101610664565b600061089e836001600160a01b0384166108a7565b90505b92915050565b60008181526001830160205260408120546108ee575081546001818101845560008481526020808220909301849055845484825282860190935260409020919091556108a1565b5060006108a1565b60006020808352835180602085015260005b8181101561092457858101830151858201604001528201610908565b506000604082860101526040601f19601f8301168501019250505092915050565b60006020828403121561095757600080fd5b5035919050565b60006020828403121561097057600080fd5b81356001600160a01b038116811461098757600080fd5b9392505050565b600181811c908216806109a257607f821691505b6020821081036109c257634e487b7160e01b600052602260045260246000fd5b50919050565b634e487b7160e01b600052601160045260246000fd5b818103818111156108a1576108a16109c8565b600060208284031215610a0357600080fd5b8151801515811461098757600080fd5b600060208284031215610a2557600080fd5b5051919050565b808201808211156108a1576108a16109c856fea264697066735822122088e2f48e77cecbc5e3bcd56be8c2e71073cac2fb237a1f7b63bf65ace079751d64736f6c63430008170033","linkReferences":{}},"methodIdentifiers":{"authorizeContributor(address)":"b9da4a42","contribute(uint256)":"c1cbbca7","contributions(address)":"42e94c90","name()":"06fdde03","refund(uint256)":"278ecde1","sponsor()":"77c93662","threshold()":"42cde4e8","token()":"fc0c546a","totalContributions()":"37c08923","withdraw(uint256)":"2e1a7d4d"},"id":30}